:020000040800F2
:10000000880600208901000891010008930100087A
:100010009501000897010008990100080000000000
:100020000000000000000000000000009B0100082C
:100030009D010008000000009F010008A1010008C8
:10004000A3010008A3010008A3010008A301000800
:10005000A3010008A3010008A3010008A3010008F0
:10006000A3010008A3010008A3010008A3010008E0
:10007000A3010008A3010008A3010008A3010008D0
:10008000A3010008A3010008A3010008A3010008C0
:10009000A3010008A3010008A3010008A3010008B0
:1000A000A3010008A3010008A3010008A3010008A0
:1000B000A3010008A3010008A3010008A301000890
:1000C000A3010008A3010008A3010008A301000880
:1000D000A3010008A3010008A3010008A301000870
:1000E000A3010008A3010008A301000800F002F822
:1000F00000F03AF80AA090E8000C82448344AAF188
:100100000107DA4501D100F02FF8AFF2090EBAE885
:100110000F0013F0010F18BFFB1A43F0010318473B
:10012000C4090000E4090000103A24BF78C878C16F
:10013000FAD8520724BF30C830C144BF04680C60ED
:10014000704700000023002400250026103A28BF35
:1001500078C1FBD8520728BF30C148BF0B60704739
:100160001FB51FBD10B510BD00F031F81146FFF7E7
:10017000F7FF00F0E9FB00F04FF803B4FFF7F2FFE0
:1001800003BC00F057F800000948804709480047C1
:10019000FEE7FEE7FEE7FEE7FEE7FEE7FEE7FEE737
:1001A000FEE7FEE704480549054A064B7047000094
:1001B000BD070008ED000008880000208806002028
:1001C00088020020880200207047704770477546FB
:1001D00000F02CF8AE4605006946534620F00700B3
:1001E000854618B020B5FFF7DDFFBDE820404FF091
:1001F00000064FF000074FF000084FF0000B21F011
:100200000701AC46ACE8C009ACE8C009ACE8C009DD
:10021000ACE8C0098D46704710B50446AFF30080C6
:100220002046BDE81040FFF7A8BF00000048704717
:100230002800002001491820ABBEFEE7260002007E
:1002400070472DE9F04102460025002600200023DA
:100250000024002791F803C00CF00F0591F803C0AB
:100260000CF0100CBCF1000F03D091F802C04CEA66
:10027000050591F800C0BCF1000F31D014680020D2
:100280002BE04FF0010C0CFA00F3B1F800C00CEABF
:1002900003069E4220D183004FF00F0C0CFA03F7A7
:1002A000BC4305FA03FC4CEA040491F803C0BCF11A
:1002B000280F06D14FF0010C0CFA00FCC2F814C054
:1002C0000AE091F803C0BCF1480F05D14FF0010CD2
:1002D0000CFA00FCC2F810C0401C0828D1D31460EE
:1002E000B1F800C0BCF1FF0F34DD546800202EE0EF
:1002F00000F1080C4FF0010808FA0CF3B1F800C047
:100300000CEA03069E4221D183004FF00F0C0CFA39
:1003100003F7BC4305FA03FC4CEA040491F803C05C
:10032000BCF1280F05D100F1080C08FA0CF8C2F84E
:10033000148091F803C0BCF1480F07D100F1080CFC
:100340004FF0010808FA0CF8C2F81080401C082889
:10035000CED35460BDE8F08100B585B001214805D9
:1003600000F02EF90121082000F03AF9C020ADF884
:10037000000003208DF8020048208DF803001C20A7
:100380008DF8030069461048FFF75BFF0020ADF8C9
:1003900008004BF6FF70ADF80A000020ADF80C0025
:1003A0004FF48060ADF80E000001ADF81000074872
:1003B00001900121064800F022F801A9044800F04C
:1003C00043F805B000BD0000000C0140A08601000C
:1003D0000054004070B50246002400250023002090
:1003E000958A138B1B0445EA030626F07F4404EA32
:1003F00001068E4201D1012000E0002070BD21B134
:10040000028842F00102028004E002884FF6FE7387
:100410001A400280704721B1028842F48072028043
:1004200004E002884FF6FF631A400280704721B152
:10043000028842F40072028004E002884FF6FF5303
:100440001A400280704700002DE9F04385B0044651
:100450000D460026B1460427DFF8CC80A6884FF66B
:10046000C0700640684600F0CBF8DDF808802F48E1
:10047000B8FBF0F01FFA80F946EA0906A68020884A
:100480004FF6FE71084020800026294928688842DE
:100490000CD828684000B8FBF0F087B2042F00DACF
:1004A00004273E4309F10100208427E0E8884BF649
:1004B000FF71884206D1286800EB4000B8FBF0F0DD
:1004C00087B209E0286800EBC00101EB0010B8FB1F
:1004D000F0F087B247F48047C7F30B0008B947F044
:1004E000010747F4004006434FF4967009FB00F003
:1004F0004FF47A7190FBF1F0401C2084A683208891
:1005000040F00100208026884FF6F5300640A8888C
:100510006989084306432680A889298908432081E0
:1005200005B0BDE8F083000000127A0040420F00E1
:10053000A086010012B141F0010102E04FF6FE7306
:10054000194001827047000070B504460D46012134
:100550001748FFF760FF00BF16491548FFF73AFF3D
:100560000028F9D0002229461148FFF7E3FF00BF19
:1005700011490F48FFF72EFF0028F9D021460C48FB
:1005800000F01CF800BF0C49891C0948FFF722FF46
:100590000028F8D001210648FFF749FF00BF0649AF
:1005A000891C0348FFF716FF0028F8D070BD000033
:1005B00000540040010003008200070001827047E0
:1005C00029B1064AD2690243044BDA6104E0034AC6
:1005D000D2698243014BDA6170470000001002408B
:1005E00029B1064A92690243044B9A6104E0034A26
:1005F00092698243014B9A617047000000100240EB
:1006000030B500210022002400232D4D6D6805F037
:100610000C0121B1042905D0082923D105E0294D79
:10062000056022E0274D05601FE0254D6D6805F44B
:100630007012234D6D6805F48034022505EB92425B
:100640001CB9214D554305600BE01D4D6D6805F447
:1006500000351DB11C4D5543056002E0194D554351
:10066000056002E0174D056000BF00BF144D6D68C6
:1006700005F0F0010909154D6B5C0568DD4045602A
:100680000F4D6D6805F4E061090A104D6B5C45681B
:10069000DD4085600A4D6D6805F46051C90A0B4D57
:1006A0006B5C4568DD40C560054D6D6805F44041F3
:1006B000890B074D6B5CC568B5FBF3F5056130BD73
:1006C0000010024000127A0000093D0011000020D5
:1006D0002100002010B500F001F810BD0CB500207D
:1006E000019000903348006840F480303149086040
:1006F00000BF3048006800F4003000900198401CB2
:100700000190009818B90198B0F5A06FF1D129486F
:10071000006800F4003010B10120009001E00020DA
:1007200000900098012843D12348006840F0100051
:10073000214908600846006820F003000860084668
:10074000006840F0020008601A4840681949486093
:100750000846406848600846406840F48060486049
:100760000846406820F47C1048600846406840F421
:10077000E81048600846006840F08070086000BFDC
:100780000C48006800F000700028F9D00948406863
:1007900020F00300074948600846406840F0020026
:1007A000486000BF0348406800F00C000828F9D1F9
:1007B0000CBD0000001002400020024010B513489C
:1007C000006840F00100114908600846406810497F
:1007D00008400E494860084600680E4908400B4929
:1007E00008600846006820F48020086008464068D9
:1007F00020F4FE0048604FF41F008860FFF76AFF96
:100800004FF000600449086010BD00000010024075
:100810000000FFF8FFFFF6FE08ED00E010B586B01F
:1008200004466846FFF7ECFE42F210710198B0FBF7
:10083000F1F06043059002E00598401E0590059890
:100840000028F9D106B010BD10B586B00446684640
:10085000FFF7D6FE07490198B0FBF1F06043059021
:1008600002E00598401E059005980028F9D106B0D1
:1008700010BD00008096980010B50021012000F006
:10088000A3F840F2DC50FFF7DFFF10BD70B504465F
:100890000E4604F00704402141EAC400002100F0A4
:1008A00093F8002504E0705D012100F08DF86D1CC7
:1008B000082DF8DB70BD000010B50F20FFF7AEFF6C
:1008C000032000F0ADF80420FFF7A8FF032000F09C
:1008D000A7F86420FFF7B8FF032000F0A1F801207B
:1008E000FFF79CFF022000F09BF80120FFF796FF26
:1008F0000021282000F068F80120FFF78FFF002179
:100900000C2000F061F80120FFF788FF002106208D
:1009100000F05AF80120FFF781FF0A49097841F0F9
:100920000801084A117008464E21FFF70DFE0549DF
:10093000097821F00201034A117008464E21FFF7A1
:1009400003FE10BD10000020FFF706FDFFF7B4FF07
:10095000FFF792FF14490020FFF798FF1349012089
:10096000FFF794FFFFF788FF0021084600F080F8AA
:100970000121002000F028F80021012000F078F883
:100980000121084600F020F80021032000F070F853
:1009900007A000F09BF80121032000F069F807A0F0
:1009A00000F094F800BFFEE70000002008000020DF
:1009B00042616C6C2D506C61746500002050726F48
:1009C0006A6563740000000070B504460D4655B9B1
:1009D0000E49097821F001010C4A117008464E2198
:1009E000FFF7B2FD09E00949097841F00101074A22
:1009F000117008464E21FFF7A7FD0026261130464C
:100A000000F00EF8204600F00BF870BD100000203A
:100A100010B5044601212046FFF7D6FF10BD0000A7
:100A200010B504462007040E1049097841F004016E
:100A30000E4A117008464E21FFF786FD3220FFF75F
:100A400003FF0A49097841EA04004E21FFF77CFDC3
:100A50000649097821F00401044A117008464E2124
:100A6000FFF772FD3220FFF7EFFE10BD10000020EF
:100A700070B504460D4635B1012D0AD0022D11D0B6
:100A8000032D21D117E044F080000021FFF79CFFE7
:100A90001AE004F14001C9B241F080000021FFF7E3
:100AA00093FF11E004F11401C9B241F0800000216C
:100AB000FFF78AFF08E004F15401C9B241F0800059
:100AC0000021FFF781FF00BF00BF70BD70B5044675
:100AD000002503E0605DFFF79BFF6D1C605D002853
:100AE000F8D170BD040B00080000002028000000B1
:100AF000280100082C0B00082800002060060000D8
:100B00004401000818181F0103070F1F03031F10DB
:100B1000181C1E1F00000000000102030401020354
:0C0B200004060708090204060800000093
:040000050800018965
:00000001FF
